{
  "contractName": "PolicyFactory",
  "abi": [
    {
      "constant": true,
      "inputs": [
        {
          "name": "",
          "type": "address"
        }
      ],
      "name": "policyBought",
      "outputs": [
        {
          "name": "",
          "type": "address"
        }
      ],
      "payable": false,
      "stateMutability": "view",
      "type": "function"
    },
    {
      "constant": true,
      "inputs": [
        {
          "name": "",
          "type": "address"
        }
      ],
      "name": "policyCheck",
      "outputs": [
        {
          "name": "",
          "type": "bool"
        }
      ],
      "payable": false,
      "stateMutability": "view",
      "type": "function"
    },
    {
      "constant": true,
      "inputs": [
        {
          "name": "",
          "type": "address"
        }
      ],
      "name": "donation",
      "outputs": [
        {
          "name": "",
          "type": "uint256"
        }
      ],
      "payable": false,
      "stateMutability": "view",
      "type": "function"
    },
    {
      "constant": true,
      "inputs": [
        {
          "name": "",
          "type": "address"
        }
      ],
      "name": "premiumVal",
      "outputs": [
        {
          "name": "",
          "type": "uint256"
        }
      ],
      "payable": false,
      "stateMutability": "view",
      "type": "function"
    },
    {
      "inputs": [
        {
          "name": "_initialSupply",
          "type": "uint256"
        }
      ],
      "payable": false,
      "stateMutability": "nonpayable",
      "type": "constructor"
    },
    {
      "anonymous": false,
      "inputs": [
        {
          "indexed": true,
          "name": "_by",
          "type": "address"
        },
        {
          "indexed": true,
          "name": "_policyAddress",
          "type": "address"
        }
      ],
      "name": "policyOwned",
      "type": "event"
    },
    {
      "anonymous": false,
      "inputs": [
        {
          "indexed": true,
          "name": "_by",
          "type": "address"
        },
        {
          "indexed": false,
          "name": "_amount",
          "type": "uint256"
        }
      ],
      "name": "donationEvent",
      "type": "event"
    },
    {
      "constant": false,
      "inputs": [
        {
          "name": "_count",
          "type": "uint256"
        },
        {
          "name": "_total",
          "type": "uint256"
        },
        {
          "name": "_coverageRate",
          "type": "uint256"
        }
      ],
      "name": "createPolicy",
      "outputs": [],
      "payable": true,
      "stateMutability": "payable",
      "type": "function"
    },
    {
      "constant": false,
      "inputs": [
        {
          "name": "_farmer",
          "type": "address"
        },
        {
          "name": "_benefit",
          "type": "uint256"
        }
      ],
      "name": "sendBenefits",
      "outputs": [],
      "payable": false,
      "stateMutability": "nonpayable",
      "type": "function"
    },
    {
      "constant": false,
      "inputs": [
        {
          "name": "_total",
          "type": "uint256"
        }
      ],
      "name": "donate",
      "outputs": [],
      "payable": true,
      "stateMutability": "payable",
      "type": "function"
    }
  ],
  "bytecode": "0x608060405234801561001057600080fd5b50604051602080610e008339810180604052602081101561003057600080fd5b810190808051906020019092919050505050610daf806100516000396000f3fe6080604052600436106100705760003560e01c8063d0ab9a891161004e578063d0ab9a89146101ca578063f14faf6f1461020c578063f457ee5a1461023a578063fa7c19111461029f57610070565b80632973a57e14610075578063365e2ff0146101065780635ecfe50a14610161575b600080fd5b34801561008157600080fd5b506100c46004803603602081101561009857600080fd5b81019080803573ffffffffffffffffffffffffffffffffffffffff169060200190929190505050610304565b604051808273ffffffffffffffffffffffffffffffffffffffff1673ffffffffffffffffffffffffffffffffffffffff16815260200191505060405180910390f35b34801561011257600080fd5b5061015f6004803603604081101561012957600080fd5b81019080803573ffffffffffffffffffffffffffffffffffffffff16906020019092919080359060200190929190505050610337565b005b34801561016d57600080fd5b506101b06004803603602081101561018457600080fd5b81019080803573ffffffffffffffffffffffffffffffffffffffff16906020019092919050505061038c565b604051808215151515815260200191505060405180910390f35b61020a600480360360608110156101e057600080fd5b810190808035906020019092919080359060200190929190803590602001909291905050506103ac565b005b6102386004803603602081101561022257600080fd5b810190808035906020019092919050505061068b565b005b34801561024657600080fd5b506102896004803603602081101561025d57600080fd5b81019080803573ffffffffffffffffffffffffffffffffffffffff16906020019092919050505061077a565b6040518082815260200191505060405180910390f35b3480156102ab57600080fd5b506102ee600480360360208110156102c257600080fd5b81019080803573ffffffffffffffffffffffffffffffffffffffff169060200190929190505050610792565b6040518082815260200191505060405180910390f35b60016020528060005260406000206000915054906101000a900473ffffffffffffffffffffffffffffffffffffffff1681565b8173ffffffffffffffffffffffffffffffffffffffff166108fc82670de0b6b3a7640000029081150290604051600060405180830381858888f19350505050158015610387573d6000803e3d6000fd5b505050565b60026020528060005260406000206000915054906101000a900460ff1681565b823481670de0b6b3a76400000211156103c457600080fd5b60001515600260003373ffffffffffffffffffffffffffffffffffffffff1673ffffffffffffffffffffffffffffffffffffffff16815260200190815260200160002060009054906101000a900460ff1615151461042157600080fd5b60003385308686604051610434906107aa565b808673ffffffffffffffffffffffffffffffffffffffff1673ffffffffffffffffffffffffffffffffffffffff1681526020018581526020018473ffffffffffffffffffffffffffffffffffffffff1673ffffffffffffffffffffffffffffffffffffffff16815260200183815260200182815260200195505050505050604051809103906000f0801580156104ce573d6000803e3d6000fd5b50905080600160003373ffffffffffffffffffffffffffffffffffffffff1673ffffffffffffffffffffffffffffffffffffffff16815260200190815260200160002060006101000a81548173ffffffffffffffffffffffffffffffffffffffff021916908373ffffffffffffffffffffffffffffffffffffffff160217905550846000803373ffffffffffffffffffffffffffffffffffffffff1673ffffffffffffffffffffffffffffffffffffffff16815260200190815260200160002054016000803373ffffffffffffffffffffffffffffffffffffffff1673ffffffffffffffffffffffffffffffffffffffff168152602001908152602001600020819055506001600260003373ffffffffffffffffffffffffffffffffffffffff1673ffffffffffffffffffffffffffffffffffffffff16815260200190815260200160002060006101000a81548160ff0219169083151502179055508073ffffffffffffffffffffffffffffffffffffffff163373ffffffffffffffffffffffffffffffffffffffff167f9adc41bb868ef7d9902b145703dd17fbdbd68c804bb4c7a07389a6978160bcd660405160405180910390a35050505050565b803481670de0b6b3a76400000211156106a357600080fd5b81600360003373ffffffffffffffffffffffffffffffffffffffff1673ffffffffffffffffffffffffffffffffffffffff1681526020019081526020016000205401600360003373ffffffffffffffffffffffffffffffffffffffff1673ffffffffffffffffffffffffffffffffffffffff168152602001908152602001600020819055503373ffffffffffffffffffffffffffffffffffffffff167fa0204251377f84a653f4e332e5a5e2289b68df9a5721fb128f0a55578c41f229836040518082815260200191505060405180910390a25050565b60036020528060005260406000206000915090505481565b60006020528060005260406000206000915090505481565b6105cc806107b88339019056fe608060405260405160a0806105cc833981018060405260a081101561002357600080fd5b81019080805190602001909291908051906020019092919080519060200190929190805190602001909291908051906020019092919050505082600160006101000a81548173ffffffffffffffffffffffffffffffffffffffff021916908373ffffffffffffffffffffffffffffffffffffffff16021790555083600260008282540192505081905550846000806101000a81548173ffffffffffffffffffffffffffffffffffffffff021916908373ffffffffffffffffffffffffffffffffffffffff16021790555080600381905550816004819055504260058190555060006006819055506000600760006101000a81548160ff0219169083151502179055505050505050610493806101396000396000f3fe608060405234801561001057600080fd5b50600436106100885760003560e01c806399d531e11161005b57806399d531e114610140578063c47347281461015e578063d811fcf01461017c578063ef78d4fd146101c657610088565b80630aa54d5a1461008d5780632ddbd13a146100ab5780633ceb2686146100c9578063689cff5e14610136575b600080fd5b6100956101e4565b6040518082815260200191505060405180910390f35b6100b36101ea565b6040518082815260200191505060405180910390f35b6100d16101f0565b604051808773ffffffffffffffffffffffffffffffffffffffff1673ffffffffffffffffffffffffffffffffffffffff168152602001868152602001858152602001848152602001838152602001828152602001965050505050505060405180910390f35b61013e610241565b005b610148610430565b6040518082815260200191505060405180910390f35b610166610436565b6040518082815260200191505060405180910390f35b61018461043c565b604051808273ffffffffffffffffffffffffffffffffffffffff1673ffffffffffffffffffffffffffffffffffffffff16815260200191505060405180910390f35b6101ce610461565b6040518082815260200191505060405180910390f35b60025481565b60045481565b6000806000806000806000809054906101000a900473ffffffffffffffffffffffffffffffffffffffff16600254600554600654600354600454859550955095509550955095509550909192939495565b6006546005540142101561025457600080fd5b6006546005540142101561026757600080fd5b6001156103c357600160009054906101000a900473ffffffffffffffffffffffffffffffffffffffff1673ffffffffffffffffffffffffffffffffffffffff1663365e2ff06000809054906101000a900473ffffffffffffffffffffffffffffffffffffffff166064600354816102da57fe5b04600454026040518363ffffffff1660e01b8152600401808373ffffffffffffffffffffffffffffffffffffffff1673ffffffffffffffffffffffffffffffffffffffff16815260200182815260200192505050600060405180830381600087803b15801561034857600080fd5b505af115801561035c573d6000803e3d6000fd5b505050503373ffffffffffffffffffffffffffffffffffffffff167f539d1196214886f7bdfb393f1cd98ddd0db29b91dc4fa655363be7e6396279556064600354816103a457fe5b04600454026040518082815260200191505060405180910390a2610413565b3373ffffffffffffffffffffffffffffffffffffffff167f539d1196214886f7bdfb393f1cd98ddd0db29b91dc4fa655363be7e63962795560006040518082815260200191505060405180910390a25b6001600760006101000a81548160ff021916908315150217905550565b60035481565b60055481565b6000809054906101000a900473ffffffffffffffffffffffffffffffffffffffff1681565b6006548156fea165627a7a723058206b226af53cd557a30861868dcbb16cb501f3c754a2862e1c5bc413e8a5fc4bc80029a165627a7a72305820d175dbdf5c1f7c3ac97e507a07ebbd0f28c8d4cbf661411bea0c3763956e398f0029",
  "source": "pragma solidity ^0.5.8;\r\n\r\nimport \"./Policy.sol\";\r\n\r\ncontract PolicyFactory\r\n{\r\n    mapping(address => uint256) public premiumVal;\r\n    mapping(address => Policy) public policyBought;\r\n    mapping(address => bool) public policyCheck;\r\n    mapping(address => uint256) public donation;\r\n\r\n\r\n    modifier enoughValue (uint256 _count) {\r\n        require((10**18)*(_count)<=msg.value);\r\n        _;\r\n    }\r\n\r\n    modifier notBought(){\r\n        require(policyCheck[msg.sender]==false);\r\n        _;\r\n    }\r\n\r\n    event policyOwned(address indexed _by,address indexed _policyAddress);\r\n    event donationEvent(address indexed _by,uint256 _amount);\r\n    \r\n    constructor(uint256 _initialSupply) public \r\n    {\r\n    }\r\n    \r\n    function createPolicy(uint256 _count,uint256 _total,uint256 _coverageRate) enoughValue(_count) notBought() public payable\r\n    {\r\n        Policy policy =  (new Policy)(msg.sender,_count,this,_total,_coverageRate);\r\n        policyBought[msg.sender]=policy;\r\n        premiumVal[msg.sender]=premiumVal[msg.sender]+_count;\r\n        policyCheck[msg.sender]=true;\r\n        emit policyOwned(msg.sender,address(policy));\r\n    }\r\n    \r\n    function sendBenefits(address payable _farmer,uint256 _benefit) public \r\n    {\r\n        _farmer.transfer((10**18)*_benefit);\r\n    }\r\n\r\n    function donate(uint256 _total) enoughValue(_total) public payable\r\n    {\r\n        donation[msg.sender]=donation[msg.sender]+_total;\r\n        emit donationEvent(msg.sender,_total);\r\n    }\r\n}",
  "sourcePath": "D:\\Agrinsurance\\contracts\\PolicyFactory.sol",
  "compiler": {
    "name": "solc",
    "version": "0.5.8+commit.23d335f2.Emscripten.clang"
  },
  "schemaVersion": "3.0.16",
  "updatedAt": "2019-12-28T09:28:06.055Z",
  "devdoc": {
    "methods": {}
  },
  "userdoc": {
    "methods": {}
  }
}