{
  "contractName": "Policy",
  "abi": [
    {
      "constant": true,
      "inputs": [],
      "name": "premiumVal",
      "outputs": [
        {
          "name": "",
          "type": "uint256"
        }
      ],
      "payable": false,
      "stateMutability": "view",
      "type": "function"
    },
    {
      "constant": true,
      "inputs": [],
      "name": "total",
      "outputs": [
        {
          "name": "",
          "type": "uint256"
        }
      ],
      "payable": false,
      "stateMutability": "view",
      "type": "function"
    },
    {
      "constant": true,
      "inputs": [],
      "name": "coverageRate",
      "outputs": [
        {
          "name": "",
          "type": "uint256"
        }
      ],
      "payable": false,
      "stateMutability": "view",
      "type": "function"
    },
    {
      "constant": true,
      "inputs": [],
      "name": "regTime",
      "outputs": [
        {
          "name": "",
          "type": "uint256"
        }
      ],
      "payable": false,
      "stateMutability": "view",
      "type": "function"
    },
    {
      "constant": true,
      "inputs": [],
      "name": "farmer",
      "outputs": [
        {
          "name": "",
          "type": "address"
        }
      ],
      "payable": false,
      "stateMutability": "view",
      "type": "function"
    },
    {
      "constant": true,
      "inputs": [],
      "name": "period",
      "outputs": [
        {
          "name": "",
          "type": "uint256"
        }
      ],
      "payable": false,
      "stateMutability": "view",
      "type": "function"
    },
    {
      "inputs": [
        {
          "name": "_farmer",
          "type": "address"
        },
        {
          "name": "_count",
          "type": "uint256"
        },
        {
          "name": "_policyFactory",
          "type": "address"
        },
        {
          "name": "_total",
          "type": "uint256"
        },
        {
          "name": "_coverageRate",
          "type": "uint256"
        }
      ],
      "payable": true,
      "stateMutability": "payable",
      "type": "constructor"
    },
    {
      "anonymous": false,
      "inputs": [
        {
          "indexed": true,
          "name": "_to",
          "type": "address"
        },
        {
          "indexed": false,
          "name": "_value",
          "type": "uint256"
        }
      ],
      "name": "benefitsReceived",
      "type": "event"
    },
    {
      "constant": false,
      "inputs": [],
      "name": "claimBenefits",
      "outputs": [],
      "payable": false,
      "stateMutability": "nonpayable",
      "type": "function"
    },
    {
      "constant": true,
      "inputs": [],
      "name": "returnFarmer",
      "outputs": [
        {
          "name": "",
          "type": "address"
        },
        {
          "name": "",
          "type": "uint256"
        },
        {
          "name": "",
          "type": "uint256"
        },
        {
          "name": "",
          "type": "uint256"
        },
        {
          "name": "",
          "type": "uint256"
        },
        {
          "name": "",
          "type": "uint256"
        }
      ],
      "payable": false,
      "stateMutability": "view",
      "type": "function"
    }
  ],
  "bytecode": "0x608060405260405160a0806105cc833981018060405260a081101561002357600080fd5b81019080805190602001909291908051906020019092919080519060200190929190805190602001909291908051906020019092919050505082600160006101000a81548173ffffffffffffffffffffffffffffffffffffffff021916908373ffffffffffffffffffffffffffffffffffffffff16021790555083600260008282540192505081905550846000806101000a81548173ffffffffffffffffffffffffffffffffffffffff021916908373ffffffffffffffffffffffffffffffffffffffff16021790555080600381905550816004819055504260058190555060006006819055506000600760006101000a81548160ff0219169083151502179055505050505050610493806101396000396000f3fe608060405234801561001057600080fd5b50600436106100885760003560e01c806399d531e11161005b57806399d531e114610140578063c47347281461015e578063d811fcf01461017c578063ef78d4fd146101c657610088565b80630aa54d5a1461008d5780632ddbd13a146100ab5780633ceb2686146100c9578063689cff5e14610136575b600080fd5b6100956101e4565b6040518082815260200191505060405180910390f35b6100b36101ea565b6040518082815260200191505060405180910390f35b6100d16101f0565b604051808773ffffffffffffffffffffffffffffffffffffffff1673ffffffffffffffffffffffffffffffffffffffff168152602001868152602001858152602001848152602001838152602001828152602001965050505050505060405180910390f35b61013e610241565b005b610148610430565b6040518082815260200191505060405180910390f35b610166610436565b6040518082815260200191505060405180910390f35b61018461043c565b604051808273ffffffffffffffffffffffffffffffffffffffff1673ffffffffffffffffffffffffffffffffffffffff16815260200191505060405180910390f35b6101ce610461565b6040518082815260200191505060405180910390f35b60025481565b60045481565b6000806000806000806000809054906101000a900473ffffffffffffffffffffffffffffffffffffffff16600254600554600654600354600454859550955095509550955095509550909192939495565b6006546005540142101561025457600080fd5b6006546005540142101561026757600080fd5b6001156103c357600160009054906101000a900473ffffffffffffffffffffffffffffffffffffffff1673ffffffffffffffffffffffffffffffffffffffff1663365e2ff06000809054906101000a900473ffffffffffffffffffffffffffffffffffffffff166064600354816102da57fe5b04600454026040518363ffffffff1660e01b8152600401808373ffffffffffffffffffffffffffffffffffffffff1673ffffffffffffffffffffffffffffffffffffffff16815260200182815260200192505050600060405180830381600087803b15801561034857600080fd5b505af115801561035c573d6000803e3d6000fd5b505050503373ffffffffffffffffffffffffffffffffffffffff167f539d1196214886f7bdfb393f1cd98ddd0db29b91dc4fa655363be7e6396279556064600354816103a457fe5b04600454026040518082815260200191505060405180910390a2610413565b3373ffffffffffffffffffffffffffffffffffffffff167f539d1196214886f7bdfb393f1cd98ddd0db29b91dc4fa655363be7e63962795560006040518082815260200191505060405180910390a25b6001600760006101000a81548160ff021916908315150217905550565b60035481565b60055481565b6000809054906101000a900473ffffffffffffffffffffffffffffffffffffffff1681565b6006548156fea165627a7a723058206b226af53cd557a30861868dcbb16cb501f3c754a2862e1c5bc413e8a5fc4bc80029",
  "source": "pragma solidity ^0.5.8;\r\n\r\nimport \"./PolicyFactory.sol\";\r\n\r\ncontract Policy  \r\n{\r\n    address payable public farmer;\r\n    PolicyFactory policyFactory;\r\n    uint256 public premiumVal;\r\n    uint256 public coverageRate;\r\n    uint256 public total;\r\n    uint256 public regTime;\r\n    uint256 public period;\r\n    bool claimed;\r\n    \r\n    modifier enoughTime(){\r\n        require(now >= regTime + period );\r\n        _;\r\n    }\r\n\r\n    modifier notClaimed(){\r\n        require(now >= regTime + period );\r\n        _;\r\n    }\r\n    \r\n    event benefitsReceived(address indexed _to,uint _value);\r\n\r\n    constructor(address payable _farmer,uint256 _count,PolicyFactory _policyFactory,uint256 _total,uint256 _coverageRate) public payable {\r\n        policyFactory=_policyFactory;\r\n        premiumVal+=_count;\r\n        farmer=_farmer;\r\n        coverageRate=_coverageRate;\r\n        total=_total;\r\n        regTime = now;\r\n        period = 0;\r\n        claimed=false;\r\n    }\r\n    \r\n    function claimBenefits() enoughTime() notClaimed() public {\r\n        ///some query and condition checking \r\n        if(true)\r\n        {\r\n            policyFactory.sendBenefits(farmer,total*(coverageRate/100));\r\n            emit benefitsReceived(msg.sender,total*(coverageRate/100));\r\n        }\r\n        else\r\n        {\r\n            emit benefitsReceived(msg.sender,0);\r\n        }\r\n        claimed=true;\r\n    }\r\n\r\n    function returnFarmer() view public returns(address,uint,uint,uint,uint,uint) {\r\n        return (farmer,premiumVal,regTime,period,coverageRate,total); \r\n    }\r\n}",
  "sourcePath": "D:\\Agrinsurance\\contracts\\Policy.sol",
  "compiler": {
    "name": "solc",
    "version": "0.5.8+commit.23d335f2.Emscripten.clang"
  },
  "schemaVersion": "3.0.16",
  "updatedAt": "2019-12-28T09:28:06.061Z",
  "devdoc": {
    "methods": {}
  },
  "userdoc": {
    "methods": {}
  }
}